:100C5C00021400000216000002120000011800C16C
:010C6C000087
:090BC4007F01120C6E7F027E001D
:100BCD00E4FDFCC3ED9FEC9E5015E4FBFA0BBB005E
:0F0BDD00010ABA04F8BBFBF50DBD00010C80E462
:010BEC0022E6
:0E0C6E008FA0C290C291D292120BC9C29222E4
:100C4A008FA0D290C291D2927F057E00120BCDC2A4
:020C5A009222E4
:100C12007F0A7E00120BCD7F38120C6E7F0C120CF5
:100C22006E7F06120C6E7F01120C6E7F027E000236
:020C32000BCDE8
:100BED008B198A1A891BAB19AA1AA91B1208E46062
:100BFD0013051BE51B7002051A14F91208E4FF1208
:050C0D000C4A80E22208
:04099A008E088F092B
:10099E00E4F510F511E509450870057F30020C4AA3
:1009AE00C3E5086480948050107F2D120C4AC3E476
:1009BE009509F509E49508F508D3E5099400E508CD
:1009CE0064809480402EAE08AF097C007D0A120927
:1009DE000FED2430FF0511E5117002051014240AE5
:1009EE00F8A607AE08AF097C007D0A12090F8E0823
:1009FE008F0980C5E51124FFFFE51034FF8F82F5C6
:100A0E0083C3E583648094804015AF82740A2FF807
:0F0A1E00E6FF120C4AE582158270E6158380E22E
:010A2D0022A6
:10080000A907120C4AE9FF3395E0FEC3EF9430EEDE
:10081000648094804050D3EF9439EE64809480508B
:1008200045200021AE14AF157C007D0A1208FDE9B9
:10083000FD3395E0FCED24D0FDEC34FFCD2FF51514
:10084000ED3EF51422AE16AF177C007D0A1208FDAE
:10085000E9FD3395E0FCED24D0FDEC34FFCD2FF520
:1008600017ED3EF51622E9642B600DE9642D600852
:10087000E964586003B92F058918D20022E9643D64
:100880007061E51824D3601A24FE603224D76021F9
:10089000242D7045E5152517F513E5143516F512C9
:1008A0008037C3E5159517F513E5149516F51280F5
:1008B00028AC16AD17AE14AF151208FD8017E5175A
:1008C0004516600DAC16AD17AE14AF1512090F80AA
:1008D000047E007F008E128F13120BC4AF13AE1272
:0408E00012099A223D
:100ABA00C2B0D2B3D2B2D2B1D2B7D2B6D2B5D2B410
:100ACA0020B40A7F3712080020B42780FB20B50A19
:100ADA007F3812080020B51A80FB20B60A7F391227
:100AEA00080020B60D80FB20B7087F2F12080030BF
:030AFA00B7FD2223
:100AFD00C2B1D2B3D2B2D2B0D2B7D2B6D2B5D2B4CD
:100B0D0020B40A7F3412080020B42780FB20B50AD8
:100B1D007F3512080020B51A80FB20B60A7F3612E9
:100B2D00080020B60D80FB20B7087F581208003052
:030B3D00B7FD22DF
:100B4000C2B2D2B3D2B1D2B0D2B7D2B6D2B5D2B489
:100B500020B40A7F3112080020B42780FB20B50A98
:100B60007F3212080020B51A80FB20B60A7F3312AC
:100B7000080020B60D80FB20B7087F2D120800303A
:030B8000B7FD229C
:100B8300C2B3D2B2D2B1D2B0D2B7D2B6D2B5D2B446
:100B930020B408120BC420B42780FB20B50A7F3091
:100BA30012080020B51A80FB20B60A7F3D12080008
:100BB30020B60D80FB20B7087F2B12080030B7FD4D
:010BC300220F
:100C3400120C127F01120C6E120ABA120AFD120B68
:060C440040120B8380F258
:03000000020A2EC3
:0C0A2E00787FE4F6D8FD758120020A757F
:1008E400BB010689828A83E0225002E722BBFE0212
:0908F400E32289828A83E4932245
:1008FD00EF8DF0A4A8F0CF8CF0A428CE8DF0A42E0F
:02090D00FE22C8
:10090F00C2D5EC30E709B2D5E4C39DFDE49CFCEE03
:10091F0030E715B2D5E4C39FFFE49EFE120945C32D
:10092F00E49DFDE49CFC800312094530D507C3E428
:06093F009FFFE49EFE2272
:100A3A00020C34E493A3F8E493A34003F68001F292
:100A4A0008DFF48029E493A3F85407240CC8C333BD
:100A5A00C4540F4420C8834004F456800146F6DF8C
:100A6A00E4800B0102040810204080900C5CE47EB4
:100A7A00019360BCA3FF543F30E509541FFEE49381
:100A8A00A360010ECF54C025E060A840B8E493A348
:100A9A00FAE493A3F8E493A3C8C582C8CAC583CA73
:100AAA00F0A3C8C582C8CAC583CADFE9DEE780BE2B
:010C6D000086
:10094500BC000BBE0029EF8DF084FFADF022E4CC96
:10095500F875F008EF2FFFEE33FEEC33FCEE9DEC5F
:10096500984005FCEE9DFE0FD5F0E9E4CEFD22EDA5
:10097500F8F5F0EE8420D21CFEADF075F008EF2FEF
:10098500FFED33FD4007985006D5F0F222C398FDE0
:050995000FD5F0EA227D
:00000001FF
